{
  "contractName": "VersionControl",
  "abi": [
    {
      "anonymous": false,
      "inputs": [
        {
          "indexed": true,
          "name": "user",
          "type": "address"
        },
        {
          "indexed": false,
          "name": "ipfsHash",
          "type": "string"
        },
        {
          "indexed": false,
          "name": "timestamp",
          "type": "uint256"
        }
      ],
      "name": "TextSaved",
      "type": "event"
    },
    {
      "constant": false,
      "inputs": [
        {
          "name": "_ipfsHash",
          "type": "string"
        }
      ],
      "name": "saveText",
      "outputs": [],
      "payable": false,
      "stateMutability": "nonpayable",
      "type": "function"
    },
    {
      "constant": true,
      "inputs": [
        {
          "name": "_user",
          "type": "address"
        }
      ],
      "name": "getNumVersions",
      "outputs": [
        {
          "name": "",
          "type": "uint256"
        }
      ],
      "payable": false,
      "stateMutability": "view",
      "type": "function"
    },
    {
      "constant": true,
      "inputs": [
        {
          "name": "_user",
          "type": "address"
        },
        {
          "name": "_index",
          "type": "uint256"
        }
      ],
      "name": "getTextVersion",
      "outputs": [
        {
          "name": "ipfsHash",
          "type": "string"
        },
        {
          "name": "timestamp",
          "type": "uint256"
        }
      ],
      "payable": false,
      "stateMutability": "view",
      "type": "function"
    }
  ],
  "bytecode": "0x608060405234801561001057600080fd5b506106e9806100206000396000f3fe608060405260043610610051576000357c01000000000000000000000000000000000000000000000000000000009004806363b12cc4146100565780636d0f0fdc146101315780636de73cd4146101f9575b600080fd5b34801561006257600080fd5b506100af6004803603604081101561007957600080fd5b81019080803573ffffffffffffffffffffffffffffffffffffffff1690602001909291908035906020019092919050505061025e565b6040518080602001838152602001828103825284818151815260200191508051906020019080838360005b838110156100f55780820151818401526020810190506100da565b50505050905090810190601f1680156101225780820380516001836020036101000a031916815260200191505b50935050505060405180910390f35b34801561013d57600080fd5b506101f76004803603602081101561015457600080fd5b810190808035906020019064010000000081111561017157600080fd5b82018360208201111561018357600080fd5b803590602001918460018302840111640100000000831117156101a557600080fd5b91908080601f016020809104026020016040519081016040528093929190818152602001838380828437600081840152601f19601f82011690508083019250505050505050919291929050505061044d565b005b34801561020557600080fd5b506102486004803603602081101561021c57600080fd5b81019080803573ffffffffffffffffffffffffffffffffffffffff1690602001909291905050506105b3565b6040518082815260200191505060405180910390f35b606060008060008573ffffffffffffffffffffffffffffffffffffffff1673ffffffffffffffffffffffffffffffffffffffff168152602001908152602001600020805490508310151561031a576040517f08c379a00000000000000000000000000000000000000000000000000000000081526004018080602001828103825260128152602001807f496e646578206f7574206f662072616e6765000000000000000000000000000081525060200191505060405180910390fd5b6103226105fe565b6000808673ffffffffffffffffffffffffffffffffffffffff1673ffffffffffffffffffffffffffffffffffffffff1681526020019081526020016000208481548110151561036d57fe5b9060005260206000209060020201604080519081016040529081600082018054600181600116156101000203166002900480601f01602080910402602001604051908101604052809291908181526020018280546001816001161561010002031660029004801561041f5780601f106103f45761010080835404028352916020019161041f565b820191906000526020600020905b81548152906001019060200180831161040257829003601f168201915b5050505050815260200160018201548152505090508060000151816020015181915092509250509250929050565b6000803373ffffffffffffffffffffffffffffffffffffffff1673ffffffffffffffffffffffffffffffffffffffff1681526020019081526020016000206040805190810160405280838152602001428152509080600181540180825580915050906001820390600052602060002090600202016000909192909190915060008201518160000190805190602001906104e7929190610618565b50602082015181600101555050503373ffffffffffffffffffffffffffffffffffffffff167f29f9a4747aa111e55354683cf50c6b0be68ad624db13d93042a4eb7cca4fc24a82426040518080602001838152602001828103825284818151815260200191508051906020019080838360005b8381101561057557808201518184015260208101905061055a565b50505050905090810190601f1680156105a25780820380516001836020036101000a031916815260200191505b50935050505060405180910390a250565b60008060008373ffffffffffffffffffffffffffffffffffffffff1673ffffffffffffffffffffffffffffffffffffffff168152602001908152602001600020805490509050919050565b604080519081016040528060608152602001600081525090565b828054600181600116156101000203166002900490600052602060002090601f016020900481019282601f1061065957805160ff1916838001178555610687565b82800160010185558215610687579182015b8281111561068657825182559160200191906001019061066b565b5b5090506106949190610698565b5090565b6106ba91905b808211156106b657600081600090555060010161069e565b5090565b9056fea165627a7a72305820b4462dd655450db001870f3da1ac25bd32e5271d3faeb4c048178ee4cf3772690029",
  "source": "// SPDX-License-Identifier: MIT\r\npragma solidity >=0.4.22 <0.9.0;\r\n\r\ncontract VersionControl {\r\n    struct TextVersion {\r\n        string ipfsHash;\r\n        uint256 timestamp;\r\n    }\r\n\r\n    mapping(address => TextVersion[]) private textVersions;\r\n\r\n    event TextSaved(address indexed user, string ipfsHash, uint256 timestamp);\r\n\r\n    function saveText(string memory _ipfsHash) public {\r\n        textVersions[msg.sender].push(TextVersion(_ipfsHash, block.timestamp));\r\n        emit TextSaved(msg.sender, _ipfsHash, block.timestamp);\r\n    }\r\n\r\n    function getNumVersions(address _user) public view returns (uint256) {\r\n        return textVersions[_user].length;\r\n    }\r\n\r\n    function getTextVersion(address _user, uint256 _index) public view returns (string memory ipfsHash, uint256 timestamp) {\r\n        require(_index < textVersions[_user].length, \"Index out of range\");\r\n        TextVersion memory version = textVersions[_user][_index];\r\n        return (version.ipfsHash, version.timestamp);\r\n    }\r\n}\r\n",
  "sourcePath": "E:\\ipfsfourth\\final\\contracts\\VersionControl.sol",
  "compiler": {
    "name": "solc",
    "version": "0.5.1+commit.c8a2cb62.Emscripten.clang"
  },
  "schemaVersion": "3.4.16",
  "updatedAt": "2024-04-09T18:37:43.701Z",
  "networkType": "ethereum",
  "devdoc": {
    "methods": {}
  },
  "userdoc": {
    "methods": {}
  }
}